:100000000000012079030000610300006303000089
:1000100065030000670300006903000000000000A2
:100020000000000000000000000000006B03000062
:100030006D030000000000006F030000710300006A
:100040007303000073030000C13200001933000085
:1000500073030000730300004531000073030000C8
:1000600035380000730300007303000073030000C1
:1000700073030000730300007303000073030000A8
:100080007303000085150000730300007303000074
:1000900021160000730300007303000073030000C7
:1000A0007303000073030000730300007303000078
:1000B0007303000073030000000000000000000054
:1000C0007303000073030000730300007303000058
:1000D00073030000730300007303000000000000BE
:1000E0000000000000000000000000000000000010
:1000F0000000000000000000000000000000000000
:1001000000000000000000000000000000000000EF
:1001100000000000000000000000000000000000DF
:1001200000000000000000000000000000000000CF
:1001300000000000000000000000000000000000BF
:1001400000000000000000000000000000000000AF
:10015000000000000000000000000000000000009F
:10016000000000000000000000000000000000008F
:10017000000000000000000000000000000000007F
:10018000000000000000000000000000000000006F
:10019000000000000000000000000000000000005F
:1001A000000000000000000000000000000000004F
:1001B000000000000000000000000000000000003F
:1001C000000000000000000000000000000000002F
:1001D000000000000000000000000000000000001F
:1001E000000000000000000000000000000000000F
:1001F00000000000000000000000000000000000FF
:10020000364937480A1A02D0072291438D463549AC
:1002100035480A1A06D00722914381F30988022241
:1002200082F3148831483249324A00F045F83248A6
:100230003249334A00F040F832483349334A00F03B
:100240003BF833483349344A00F036F833483449F0
:10025000344A00F031F834483449354A00F02CF87B
:1002600034483549354A00F027F8354835490022E9
:1002700000F02DF834483549002200F028F83448C1
:100280003449091A082903DB0022026004300160A6
:10029000314A90471F482049884205D002680430FF
:1002A00003B4904703BCF7E700208646EC460020E5
:1002B00000212A4A9047FEE7884207D0521A05D00B
:1002C000037801300B700131013AF9D1704788424F
:1002D00002D002700130FAE77047000000000120F0
:1002E00000E000200000012000000120806B0000E1
:1002F000000000202C000020D8030000D8030000DC
:10030000C0610000806B00000000002000000020A1
:100310001C6200001C6200001C6200001C620000E5
:100320001C6200001C6200001C6200001C620000D5
:10033000806B0000AC6B00002C0000202C00002023
:100340002C000020641000206410002064100020A5
:100350006410002064300020A1030000B93C0000BC
:10036000FEE7FEE7FEE7FEE7FEE7FEE7FEE7FEE765
:10037000FEE7FEE7704700BF1048804710484FF087
:100380000701884385460F4880470F48016841F4BC
:1003900070010160BFF34F8FBFF36F8FFFF730BF66
:1003A0000A480B490B4A884207D0521A05D00378F5
:1003B00001300B700131013AF9D17047750300002B
:1003C000000001209954000088ED00E01C6200004C
:0803D0000000002000000020E5
:1003D8007047000007B5044B0093044A402300F01F
:1003E80032F803B05DF804FBF90300002D0000208B
:1003F8002DE9F84389461446B2B10F4B0F4E032539
:10040800002743F00108224609EB0701002003F00A
:100418007FFD0744241A48B933782BB14FF47A404A
:10042800C047013D02D13570BDE8F8830123337020
:10043800002CE8D1F8E700BF206200002C00002063
:10044800704703F099BDF0B595B01C4616460846AE
:100458000D4602F0B0FC1A9B0D93CDE90864002408
:100468002346082205A928460A948DF82C400C94A6
:1004780002F0BFFC079B0293BDF81830ADF80C30B2
:10048800BDF81A30ADF80E309DF814308DF81140D3
:1004980003F00302012A1DD1BDF81440059EC3F3E1
:1004A800C203C4F383148DF81030A20008230EA9E8
:1004B800284602F09EFCC6F3952608AB0093224618
:1004C80002AB0EA9304600F055FB284602F077FC37
:1004D80015B0F0BD022AF8D1BDF81640C3F3C20327
:1004E800A4098DF810300827082C264628BF0826AE
:1004F8003B4632460EA9284602F07BFCA41B08ABFB
:1005080002AA31460EA8374400F098FB002CEBD124
:10051800DBE7000008B5FFF794FF0421034800F06B
:1005280097FA034B01225A7108BD00BFF861000019
:1005380000000020037813F0040216D003F0030330
:10054800012B03D0022B09D0012070470A680088CC
:100558000232C0F3831002440A60F5E70B68428850
:10056800023303EB92130B60EEE71046704700006E
:100578002DE9F04F484C87B00F460546861C0020F1
:10058800019201F0EDFF23683B60D4E90123134495
:10059800226801339B1A04F21C4704F5836A04F2AB
:1005A8001448B34219D3019A0023002A6CD00122BF
:1005B80062F3010343F0040365F389132168A26819
:1005C8000A4003320E44002044F82230266001F02D
:1005D800C9FF012007B0BDE8F08F0121384601F0BE
:1005E800E3FF504601F0F6FF404601F0F3FF0DF13E
:1005F80018096068D4F808B049F8100D00EA0B0033
:10060800033004EB80004946FFF794FF029BB0B922
:100618000BEA030204EB8202D16803919A1C0133AE
:1006280003EA0B0B04EB8B0C01F00303012B029282
:10063800DCF80CB020D0022B04D083460BE00BEA88
:100648000300DDE7BDF80E309B0903334FEA1B4B6F
:1006580002EB93030293404601F0BFFF08B1029BEF
:1006680063605946384601F09FFFD4E901231344DB
:10067800226801339B1A94E7BDF80C30C3F3831347
:100688004FEA1B4B1344E5E7022262F3010343F0F0
:10069800040365F39F5391E7400100200B4B0C487E
:1006A800FF2210B59A600022C3F81824C3E900227B
:1006B800C3F81424012283F8202402F035FB0446F1
:1006C80010B9044802F0A0FB204610BD40010020EC
:1006D800086200004462000030B50A4C71B10A4A51
:1006E8000A49121BD20800239A4201D1002030BDCA
:1006F80031F82350854202D00133F5E7034654F818
:100708003300F4E7C0610000F86100000000002039
:10071800094B013903EBC000032909D8DFE801F0D0
:100728000A02040604207047007970474079704730
:100738000020704702207047C0610000034BD3E9D6
:100748000030C31A58425841704700BF400100208A
:100758002DE9F04385B0FFF7F1FF0646002840F089
:10076800F9807D4DC5F81804BFF34F8F6868AC68F1
:1007780004AF47F8100D2040033005EB80003946E0
:10078800FFF7D8FE009B18B1D5F81824002A5FD0CF
:1007980004EA0302991C013305EB8202234005EBAE
:1007A8008303D268DB68029302F00303022B0192F1
:1007B800009162D1BDF8063068484FEA9318B8F145
:1007C800500FC14628BF4FF0500969F38F1309F144
:1007D8000801ADF8063002F0BFFA0746002800F01D
:1007E800A48002F0E8FA01A900230822384602F0A2
:1007F800F5FA009924EA01060136B600B14535D963
:100808005FFA89F97EB3F6B2A9EB060921400331F4
:100818005FFA89F4B146524E05EB810108234A4636
:10082800384602F0DBFA36B109F1080322463146B0
:10083800384602F0D3FA009B08F1030803EB98034B
:100848000093D5F81834002B4BD1D5F810445BE051
:100858002A689A4204D86A60304605B0BDE8F08339
:1008680004EA030088E73E493446D7E721400331CC
:1008780008234A4605EB8101DAE7012B55D1BDF87B
:1008880004303648C3F38311062928BF062161F3D3
:10089800891302318900ADF8043002F05DFA074689
:1008A800002842D002F087FA0023082201A938461E
:1008B80002F094FA0026BDF80420C2F38312B31C98
:1008C80096424FEA8303BCD200994A1C2140033167
:1008D800009205EB81010422384602F07FFA0136C6
:1008E800E9E7384602F06BFAFFF728FF80F00100CD
:1008F800C6B2B1E7E3685B7923B1236839461B6860
:1009080020469847E3681C68002CF3D1384602F06B
:1009180056FA204601F024FED5F818340BB9009B8E
:100928006B60002001F01EFEDEE7D5F8104454B9D4
:100938000C4B0D480D49C01AC008000440F00200D5
:1009480000F06EF8D0E7236820469B689847E36874
:100958001C68ECE700267FE74001002008620000E1
:100968004C010020C0610000F061000050620000EE
:100978002DE9F74F284C80460F46924601A90122DF
:1009880018469B46D4F80890FFF7F2FD88B3019DFE
:100998000026A91C5E4506EB010234D100211F4840
:1009A80001F0E2FD80F310006A1C02EA090204EB80
:1009B8008202000405EA0903033340EA1840D060C4
:1009C80014F8232068F3C50204F8232034F8232000
:1009D80066F3891224F8232054F82320012167F3B1
:1009E8009F2244F8232061F301026FF3820204F886
:1009F800232094F820341BB1FFF7AAFE0028FBD16E
:100A080003B0BDE8F08F09EA020204EB82025AF84B
:100A18002630D3600136BDE7400100205C05002088
:100A280000231A46FFF7A4BF13B502AC012344F80C
:100A3800042D2246FFF79CFF02B010BD07B5CDE993
:100A4800002302236A46FFF793FF03B05DF804FB17
:100A580030B50F49D1F81024002314463CB9C468B6
:100A6800237152B9C1F810042260184630BDE468F9
:100A780025799D4206D02468F0E7D2681168216084
:100A88001060F2E701330A2BE7D14FF0FF33ECE7B0
:100A980040010020094A38B50123D2F8104482F8F1
:100AA80020341D4604B938BDE3685D7123682046CB
:100AB8005B689847E3681C68F4E700BF40010020C2
:100AC800037A052B10B50C460FD0437A23B1084A98
:100AD8000849204601F025FF0749204601F021FF7B
:100AE8002046BDE8104001F011BF002AF8D0F3E716
:100AF8009B62000034650000BD620000C38873B5C6
:100B080004460D4633B1144A00921449144A284643
:100B180001F007FF217A05291CD0637A4BB1A08820
:100B2800FFF7F6FD0F4B104953F82020284601F037
:100B3800F8FE227A0D4BA08853F822600021FFF7B7
:100B4800CBFD0B4903463246284602B0BDE870404B
:100B580001F0E7BE02B070BD9B620000A862000011
:100B6800A06200006862000034650000CC620000EA
:100B7800C06200002DE9F04385B01F460C9D00239C
:100B880006460C46904695F80C902B732946384635
:100B9800FFF7B4FFB8F1060F09D8DFE808F0041230
:100BA800181F283340003146284601F0BAFE0022BB
:100BB80029463846FFF784FF85F80C9005B0BDE854
:100BC800F08322683146284601F0ABFEEFE7D4E90E
:100BD80000233146284601F0A4FEE8E7A368009305
:100BE8003146D4E90023284601F09BFEDFE7E3689D
:100BF8000193A36800933146D4E90023284601F005
:100C080090FED4E723690293E3680193A3680093F5
:100C18003146D4E90023284601F083FEC7E763691B
:100C2800039323690293E3680193A3680093314611
:100C3800D4E90023284601F074FEB8E708292DE915
:100C4800F84F80460E4617461C463AD8002593F8BA
:100C58000C901D7319461046FFF750FFDFF884A06B
:100C6800DFF884B0AE422ED918F805205946204640
:100C780001F057FE0135082DF4D11849DFF86CB0A2
:100C8800204601F04EFE4FF0000A564520D918F8CC
:100C98000A507E2D03D8284604F01EFE00B92E25E2
:100CA8002A465946204601F03CFE0AF1010ABAF1EB
:100CB800080FEAD1012221463846FFF701FF84F8E0
:100CC8000C90BDE8F88F5146204601F02AFED1E786
:100CD8000349204601F025FEE7E700BF96620000C1
:100CE80094620000926200008C620000986200002A
:100CF800054A4FF0A043105CD3F8043523FA00F0FE
:100D0800C04300F0010070472B630000044B1A5CDD
:100D1800012393404FF0A042C2F80C35704700BF42
:100D28002B630000044B1A5C012393404FF0A04250
:100D3800C2F80835704700BF2B63000008B50020D3
:100D4800FFF7F0FF0120FFF7EDFF0220FFF7EAFFB2
:100D58000320BDE80840FFF7E5BF08B50020FFF70E
:100D6800D5FF0120FFF7D2FF0220FFF7CFFF0320B6
:100D7800BDE80840FFF7CABF074A4FF0A041105C22
:100D8800D1F804350122824022EA03001340C1F859
:100D98000805C1F80C3570472B6300000D2809D0F1
:100DA8000E2809D00F2809D010280CBF03204FF0B7
:100DB800FF307047002070470120704702207047BD
:100DC800C20708B501460CD54FF0A0430322C3F86B
:100DD8004427C3F84827C3F84C27C3F85027FFF720
:100DE800ADFF8B070AD54FF0A0430C22C3F8342778
:100DF800C3F83827C3F83C27C3F8402708BD0220AA
:100E0800FFF7BABF2DE9F04781460D46FFF7C6FF49
:100E18000328044604D8012D04D024D3022D2FD052
:100E2800BDE8F087194D47003A18A918AE5C4A7812
:100E380052B1DFF86880164842464FF4004100F08E
:100E480083FD08B988F800903B192B449A78114B18
:100E58001A55002EE4D0104B1B68002BE0D030460A
:100E6800BDE8F04718470A4800F0B0FD074B04EB0F
:100E7800440213449E78074B1B5DB342D0D1E8E788
:100E8800024B00EB40041C446678E2E76006002051
:100E9800200600207906002074060020FC050020AA
:100EA80002210078FFF7AEBF08B5094B1B7853B194
:100EB8000020FFF737FF0120FFF734FF0320BDE8CC
:100EC8000840FFF72FBFBDE80840FFF737BF00BF56
:100ED800FD050020F8B57B4C237805461BB100239F
:100EE8002370FFF7E1FF172D00F28880DFE805F097
:100EF8000C17174354657680888D888D959A9A9A31
:100F08009A9AC4C9D1D9E4E4FFF7CEFF6E4800F03D
:100F18005DFD6E4B002204461A702046F8BD002085
:100F2800FFF7E6FEF8B10020FFF7FCFE022D0CBF2C
:100F38004FF4E1614FF47A61644B1D704FF4004047
:100F48004FF4FA740025E0FB01454FF47A72002350
:100F58002046294604F0CAFB002201465A48BDE84B
:100F6800F84000F0F1BCFFF7D1FE022D0CBFC821FC
:100F78004FF4C871E0E70020FFF7BAFE40B1002047
:100F8800FFF7D0FE4FF44871504B03221A70D5E793
:100F9800FFF7BCFEC821F7E70020FFF7A9FE38B12C
:100FA8000020FFF7BFFE4FF47A61484B0422EDE7BB
:100FB800FFF7ACFE4FF4C871F7E70020FFF798FE83
:100FC80048B10020FFF7AEFE404B05221A7041F6EB
:100FD8009A110022C2E7FFF799FEF5E70020FFF714
:100FE800CBFE3A4B06221A70002240F6CD41B5E7F7
:100FF8000020FFF78BFE354B07221A7000248CE780
:1010080001202070FFF7B8FEEEE701202070FFF7FF
:10101800B3FE00224FF48041A0E7FFF79EFE2B4B62
:101028000C22EAE72A482B4E00F0D0FCD5F1110536
:1010380004461CD0D8B9012D13D0C8235D434FF402
:1010480000474FF4FA7000214FF47A720023C7FB6F
:10105800050104F04BFB224601461D4800F074FCD4
:1010680004460220FFF752FE0123337055E70220A1
:10107800FFF758FE0023F8E7FFF716FF134B12227D
:10108800BBE7FFF711FF0020FFF740FE0F4B1322CD
:10109800B3E7FFF709FF0120FFF738FE0B4B1422D7
:1010A800ABE7FFF701FF0020FFF730FE0120FFF755
:1010B8002DFE064B1522A0E7FFF74FFE034B1D70D0
:1010C8009CE700BF7006002040060020780600203C
:1010D80000060020FD050020044B1B68DB0703D534
:1010E800034B1878FFF7F6BE704700BF6C06002068
:1010F80078060020044B1B6813F0010301D0FFF7AA
:10110800E9BE1846704700BF6C06002038B51C4B76
:1011180018601C4B10F00204054619601AD01A4BCF
:101128001A480E221A700F22DA7010229A711122B0
:101138005A72042140F2666200F00CF9044648B97C
:1011480000F05CF9044628B90146114A114800F03C
:10115800E9FB0446EB0711D50120FFF731FE6CB916
:1011680021460D4A0D4800F0DDFB044630B90C4A13
:101178000C480121BDE8384000F0D4BB204638BDFA
:101188006C06002074060020600600203063000012
:10119800A90E000054630000E1100000586300002D
:1011A800070E0000506300002DE9F04F3B4F89B057
:1011B80000263B4B1B78F5B2AB4202D809B0BDE81C
:1011C800F08F384B196811F835000124A0F120027E
:1011D800C0F1200304FA02F924FA03F349EA0309E7
:1011E800D7E9002304FA00F8CDE9042302EA08024B
:1011F80003EA0903134301EBC50B4CD0DDE90423D3
:1012080022EA080223EA0903C7E90023079101F04B
:101218008BFF0799844611F83500A0F12002C0F130
:10122800200324FA03F304FA02F21A4304FA00F33F
:1012380000931D4B0192DDE90045D3E900231440DA
:101248001D4022462B465FFA8CF40025CDE9044563
:10125800049CA0F12005AC400394049CC0F120013B
:1012680024FA01F1039C0C430499039481400291F0
:10127800DDE90245AB4208BFA2420CD19BF8011040
:101288004B1E59425941A1EB0C02DBF80430514284
:10129800514103B1984701368BE700BFB0060020E3
:1012A8007D060020B8060020A80600202DE9F84F8A
:1012B8000646244800F08AFB002841D10123A6F104
:1012C8002001C6F1200203FA01FB23FA02F203FA15
:1012D80006FA1D4BD3E900014BEA020B00EA0A08A3
:1012E80001EA0B0958EA09021F4623D1304601F0EA
:1012F8001BFF164BB8B1D3E9000140EA0A0441EAE2
:101308000B05C3E90045D7E900234BEA0305104B59
:101318000C4819684AEA0204C7E900450022BDE8FA
:10132800F84F00F011BBD3E9000120EA0A0421EAD2
:101338000B05E6E720EA0A0421EA0B05C3E90045A4
:10134800BDE8F88F84060020B0060020A80600201B
:1013580080060020042A2DE9F34105460C4616466E
:101368003AD901F019FED8B11C4B1D491D601D4B1F
:10137800DFF884801C701C4B00221E600023C1E92A
:1013880000231A49C1E90023013CE4B200260327DF
:10139800FF2C0CD1164A1748002100F0C3FA03E0CD
:1013A80001F0C4FD0028DFD002B0BDE8F08123B20F
:1013B80005EBC30201A992788DF8052015F83300D2
:1013C8008DF8066042468DF8047001F0EFFD013C8F
:1013D800E4B20028DCD0E7E70720E5E7B8060020FC
:1013E800A80600207D06002080060020B006002008
:1013F800B11100005C630000B512000070B5084D23
:10140800084E00242B789C4201D3002070BD33681D
:10141800012113F8340001F041FE0134F2E700BF66
:101428007D060020B80600201FB50021039001AA00
:1014380044F20100CDE9011100F004F805B05DF8AF
:1014480004FB000010B572B6FFF724FBFFF780F924
:101458000028FBD1104B114C1149E41AE40824046C
:1014680044F00100FFF7DCFA0E4B1B68DB0700D5E0
:1014780000BE0D4944F00200FFF7D2FABFF34F8FC8
:101488000A490B4BCA6802F4E0621343CB60BFF30E
:101498004F8F00BFFDE700BFC0610000F061000092
:1014A80060630000F0ED00E06C63000000ED00E018
:1014B8000400FA05094A537891780133DBB299425E
:1014C80008BF0023117899421FBF03705078182372
:1014D80003FB002014BF043000207047BC06002026
:1014E80037B5044600200D4601F03AF80DF1070023
:1014F800FFF7E0FF90B10570094B9DF807204460A5
:101508005A700024002001F02DF824B9054B4FF43F
:101518008012C3F80021204603B030BD0424F1E74F
:10152800BC06002000E100E0024B4FF43C6043F0B1
:10153800010318478063000038B50C4B0C4C4FF47E
:101548000032C3F8802001254FF48033C4F84833B3
:10155800C4F808336560FFF7E7FF064BA560002471
:101568001C60FFF7E1FF044B1C7038BD00E100E090
:1015780000100140D8070020C9070020F8B51F4B0C
:101588001F491B680025C1F84051C1F84451C1F8F2
:101598004851C1F84C51C1F80051C1F804514BB33E
:1015A800D1F8044517490968641A24F07F442F4686
:1015B8001A68A24209D8A41A15441A7CDE691AB11D
:1015C8001F74D3E905209047AEB90F4B0F4A19781D
:1015D80013788B4205D10133DBB2022B08BF0023FD
:1015E800137012780A4B43F822500A4B4FF48012BA
:1015F800C3F80021F8BD3346DAE700BFDC07002056
:1016080000100140D8070020D4070020D50700208B
:10161800CC07002000E100E02DE9F74F9E4A9F49E2
:10162800137809789E4D99423CD00133DBB2022BE6
:1016380008BF002313709B4912789B4B0F6853F81F
:1016480022003B1823F07F4300220B602B681646CC
:101658001446944613B942B12B6006E019688142DA
:101668000ED902B12B60091A19604FF001082B68D6
:10167800DFF83CA200930027BEB9DFF83CB260E077
:10168800401A0C44D968C3F800C0D3F81CE031B143
:101698003A1922F07F42C3E90121DE611E46012288
:1016A8007346D7E70026B046E1E73446F6697D4A37
:1016B80063681268DFF804C2A068991A21F07F41B4
:1016C800614500F2A58001442160012222742A6844
:1016D8000023C4E90133E361002A40F0A2802C60B2
:1016E800CAE75A1C9BF80210D2B291428BF800202C
:1016F80004BF00228BF80020182202FB03B32A68DB
:1017080019799C68022974D003297ED0012918D13F
:10171800217CB1B9DA6862601A69A2605A699B696A
:10172800A361624BE2601B78002BC0D06160BEE70A
:101738009C4200F093809946DB69002BF8D1002386
:1017480023749BF800309BF801209A42C9D12B687A
:101758002FB9009A934202D1B8F1000F43D0002B61
:1017680079D0D3F800A0524D4E4BD5F804751C68BB
:10177800DFF84C813E1B98F8003026F07F46033690
:101788009BB94FF48033C5F84433C5F80433494B4B
:101798004FF400324FF00109C3F880211A60C5F8F0
:1017A8000090FFF7C1FE88F80090B2452CBF544462
:1017B800A41924F07F44C5F84045D5F80435DB1B4F
:1017C80023F07F43E41B033324F07F44A3420AD968
:1017D800D5F80435C5F84035FFF7A6FE354B4FF46C
:1017E8000032C3F80021314B00221A7003B0BDE863
:1017F800F08F13469146A0E71174D2690123002A9D
:10180800FAD1002B9DD02A609BE700231946F6E702
:10181800D31A23F07F43834234BFC31A00232360C3
:1018280053E721681368994213D8591A1160E26185
:1018380055E7091AD8691A4638B103461868884224
:10184800F7D3401A1860184613462160E061DC613E
:1018580012E71346F2E7FFF76FFEC4E74C450DD1D8
:10186800D3692B6053B90F4801920121CAF80810B7
:1018780003600E4B1970FFF757FE019AE169236860
:10188800C9F81C1011B1086803440B602B689A4210
:1018980018BF012753E700BFD4070020D507002051
:1018A800DC070020D8070020CC070020C80700204C
:1018B8000010014000E100E0BC060020FEFF7F00B0
:1018C800C907002008B5FFF737FE104B00200B2290
:1018D80018809A700E4B18600E4B18700E4B1870CB
:1018E8000E4B4FF48012C021C3F8802183F81413E3
:1018F8001A6002F18042A2F56F22C2F8080583F847
:101908001113074BD2F804251A6008BDBC06002045
:10191800DC070020D4070020D507002000E100E004
:10192800D8070020074B9B784BB132B128B1036828
:10193800187C20B959745A617047072070470820ED
:10194800704700BFBC0600202DE9F3411C4EB37858
:1019580004460D4617468BB380B304292CD9436936
:1019680063B3437C0020012B0CBF88464FF000086E
:1019780000F0F6FD0DF10700FFF79CFDD0B1012343
:101988000370104B4460D3F80435C0E90487C0E9FC
:1019980002359DF8073073700024002000F0E2FD46
:1019A80024B9094B4FF48012C3F80021204602B035
:1019B800BDE8F0810424F0E70724F7E70824F5E7F9
:1019C800BC0600200010014000E100E0064A9278C1
:1019D8003AB130B1426922B1002202740221FFF704
:1019E8007FBD0820704700BFBC06002030B50C4CF6
:1019F80094F858500124AC404FF0A04585B0C5F884
:101A08000C45CDE90001CDE90223694600220548CD
:101A180001F0D2FD08B1FFF707FD05B030BD00BFEA
:101A2800E00700208C630000F8B5254B93F82340AD
:101A3800002C42D146B2002E33DB012583F8235017
:101A48001D1900F07F0785F828700F0E85F829709A
:101A58000F0C85F82A7040284FEA112785F82B705B
:101A680085F82C1027D048280CBF8721FF21023A7F
:101A7800012A94BF0522012283F82420002E1C4449
:101A8800A8BF93F824300F4A84F82D10B8BF01235B
:101A98000E33A2F11000DBB20621FFF7A7FF0020EA
:101AA800F8BD022483F8234077249C624FF47F44D6
:101AB8009C850624C4E79521D9E71120F0E700BFEB
:101AC800E0070020180800202DE9F047534FFE8B4F
:101AD80040F2D914A6423C466AD0B6F5ED7F08D24A
:101AE800A6B140F2C715AE4229D00023E3830320F4
:101AF80043E0B6F5F07F4FF0000109D0B6F5F67F68
:101B0800F3D187F823101970F98330E0BD8AFD827C
:101B1800E68AFF255EB9424A84F82850022301214B
:101B2800A2F11000FFF762FF4FF4F67368E0002699
:101B380084F8285003252684268384F8235044F605
:101B480020674FF0040C2FE0268C0136B6B2BE4257
:101B580026840ED80646002955D010F8015BFF2DC3
:101B68000DD0FE2D0ED005221A700023E38302202B
:101B780003E0022018700023E383BDE8F0870139F1
:101B8800C9B2E7E70139C9B291428E4684F823C049
:101B980028BF9646B046A8EB0609CE45E56817D893
:101BA8007544A4F818E0E56094F82350032DCBD0D1
:101BB800258B954211D3E38A194A013BE38201211F
:101BC8000223A2F11000FFF711FF4FF4F07317E0A2
:101BD80018F801AF05F809A0DDE7551BADB2F02DE7
:101BE80028BFF025EBB2E2680E480121FFF7FEFEA0
:101BF800E3682B44E360238B1D44258340F2D9130B
:101C0800E3830120B9E7064A10230121A2F110005D
:101C1800FFF7ECFE40F2C713F2E700BFE007002031
:101C28001808002008080020154B10B593F822402A
:101C3800FCB193F82240032C1DD1F2B1042483F89F
:101C480022409C7A9A82240758BF4902C3E90301BB
:101C5800012ADA824FF000048CBF52205120012261
:101C680019699C83FFF7E0FE10B1FFF7DDFB204602
:101C780010BD0820FCE71120FAE70720F8E700BFAD
:101C8800E007002038B51A4B154693F8222042B3D6
:101C980093F82220032A26D13DB3052283F8222077
:101CA8009A7A9D82140758BF49020024012DC3E97E
:101CB8000301DD829C8309D119692A465820FFF760
:101CC800B3FE08B1FFF7B0FB002038BD02F00702F1
:101CD800012A07BF196959200122294618BFD720B0
:101CE800EDE70820F1E71120EFE70720EDE700BF57
:101CF800E0070020F0B5344C94F8222089B00E4655
:101D080002F0FF03002A5AD100295AD0C278FF2ACC
:101D180057D04178FF2954D00778FF2F51D08078C9
:101D2800FF284ED002F5E0754FF0A04C4FF0030E9F
:101D380084F858204CF825E0012505FA02F2CCF881
:101D48000825FF228DF802108DF8032006218DF852
:101D580005204FF080628DF800008DF80410029283
:101D680069461A4A1A488DF801708DF80C308DF8BA
:101D78000D3001F071F808B1FFF756FBA37A266021
:101D880003F0F8036FF3C303A372FF2384F828302A
:101D9800104B114884F822500026CDE90435103341
:101DA800069332460A2304A984F82360079301F0B6
:101DB80003FC10B1FFF738FB304609B0F0BD08202E
:101DC800FBE70720F9E700BFE0070020291E000015
:101DD80088630000080800208C63000010B50E4CD2
:101DE80094F82230A3B194F82230032B12D10B4877
:101DF80001F0A0FB94F858304FF0A04203F5E073CF
:101E0800002042F8230084F8230084F8220010BD43
:101E18000820FCE71120FAE7E00700208C630000A7
:101E2800F7B5B44C0646E58AC068317C3DB994F8EC
:101E38005820012393404FF0A042C2F8083594F887
:101E480023707B1E012B56D8766836788A1F4C2E55
:101E5800D2B200F1060305D1002A00F03183073918
:101E6800CAB2C31D1846114601E00139C9B203467A
:101E7800002900F023831A78FF2A00F10100F4D02A
:101E8800022F34D1012284F823201A7812F0FE0F91
:101E98002DD194F82430984A0E33DBB20621A2F1F2
:101EA8000A00FFF7A3FD03B0F0BD00238DF804304E
:101EB800032384F82230FFF791FF28B1FFF7B4FA23
:101EC80002E002238DF8043094F85820012393404F
:101ED8004FF0A042C2F80835032384F82230236863
:101EE80001A89847DFE70320E8E70023C8E70022B6
:101EF80084F82320184694F82230013B042B00F282
:101F0800D982DFE813F005000A00D7027F01CA0171
:101F1800022384F822300023A383A58BD0F8012064
:101F28000378B5F50E7F12BA00F0CD802CD840F2B8
:101F38001322954270D0B5F5057F08D2002D5FD0E9
:101F4800B5F5047F51D00023A38306216AE040F24F
:101F58001922954200F08E8040F226229542F2D155
:101F6800590740F1E780A37A012262F30203A372C2
:101F7800238C01339BB2B3F5FA6F238440F2988027
:101F88000023A38302214DE040F26126B54200F010
:101F9800E28012D840F24D218D4200F0CB8040F211
:101FA80053218D42CFD113F0FC0F38D1530042BFDB
:101FB800A37A43F00803A3728BE040F26B229542A8
:101FC80000F0DB8040F271239D42BCD101AB1022AE
:101FD800FFF77AFD01287FF666AF9DF80410002907
:101FE80000F0D6800023A3831CE0012200214020BA
:101FF800FFF71AFD08B1FFF717FA40F2132309E0BB
:10200800012229464020FFF70FFD08B1FFF70CFA1F
:102018004FF40473A38346E713F0FC0F1ED000238C
:10202800A3830421002394F858208DF80430032357
:1020380084F82230012393404FF0A0428DF8051018
:10204800C2F8083521B1FFF7C9FE08B1FFF7ECF96E
:102058002A4B4FF08042C3F8242540E703224FF46F
:10206800D5714820FFF7E0FC08B1FFF7DDF940F231
:102078001923CFE7580707D4A27A032161F3020294
:1020880013F0FC0FA272CAD100232384A37A03F0B1
:102098000703032B0CBF4FF0804100210222E920E7
:1020A800FFF7C2FC08B1FFF7BFF940F22623B1E7FA
:1020B800022200214120FFF7B7FC08B1FFF7B4F96D
:1020C8004FF40E73A6E713F0FC0FA8D1DA073FF51B
:1020D8004FAFA37A03F00703032B40D001224FF43C
:1020E80000715020FFF7A0FC08B1FFF79DF940F2FE
:1020F80061238FE7E0070020180800200030004027
:10210800238C01339BB2B3F5FA6F23843FF638AFC3
:10211800A37A03F00703032B0CBF4FF08041002183
:102128000222E920FFF780FC08B1FFF77DF940F2B1
:102138004D236FE713F0FC0F7FF471AF13F001012B
:10214800DED102227A20FFF76FFC08B1FFF76CF9A5
:1021580040F253235EE713F0FC0F7FF460AFBF4BF0
:10216800E360012200214920A282FFF75DFC08B14B
:10217800FFF75AF940F26B234CE713F0FC0F7FF49A
:102188004EAF013940F271230130C9B2E3611DE756
:1021980094F848309B09012B25D001D3022B2FD16D
:1021A80094F84F3094F8502094F852009B0003EBB9
:1021B800921394F84E20920202F4406201331344C1
:1021C80094F85120520002F0060202EBD01294F863
:1021D8004D0000F00F0007380244934063604FF44D
:1021E80000732381FEE694F8513094F850200133AF
:1021F80003EB022394F84F2003EB02439B02EDE725
:102208000B46EBE7A38B40F29A22934223D040F28D
:10221800A225AB423AD0002B3BD1057815F0FC0F34
:1022280015D0A3830421032284F82220002201234D
:10223800626184F8232094F858208DF804308DF8D2
:10224800051093404FF0A042C2F8083547E601391F
:102258000130C9B2E26101AB4FF40072FFF734FC00
:1022680001287FF620AE9DF8041011B10023A38346
:10227800D9E7A38A012B09D901224C20FFF7D4FB07
:1022880008B1FFF7D1F840F2A223C3E60021A183E9
:10229800C9E70023A3830621C5E7A38BB3F5397FDC
:1022A80000F0A9800ED840F2C322934240D040F2F9
:1022B800D322934200F09F80002B50D00023A383A9
:1022C80006233CE040F20A32934224D011D8B3F5F9
:1022D8003B7FF3D194F83A3003F01F03052B00F04D
:1022E8009E800B2B01D00D2B26D10023A383052321
:1022F80025E0B3F5487F00F0C280B3F54C7FDDD10F
:1023080003461A1A8A4280F0BF8013F8012B002A6C
:10231800F7D00023B6E003461A1A8A4280F081807B
:1023280013F8012B002AF7D0002384F8233078E033
:10233800037813F0FC0F29D00023A38304238DF81E
:1023480005300323022284F8223000238DF804206C
:1023580084F82330636194F85820012371E70378E7
:1023680013F0FC0FE8D1A37A03F00703012B0DD07B
:10237800A38A012B0AD9012221695920FFF754FBAE
:1023880008B1FFF751F840F2C32343E6A38AE3827A
:10239800E28AA38A22B9012B64D80023A383CEE75B
:1023A800002222830422022B84F823204FF0FF020C
:1023B80034BFFE23FC2384F82820294A84F82930D6
:1023C80002231946A2F11000FFF710FB40F2D323B5
:1023D80020E6C6F50075ADB2F02D28BFF025012323
:1023E800E9B21F4A3044FFF701FB238B1D442583C4
:1023F8004FF439730EE6268BE068B6F5007FE8D314
:10240800174A00F500700323E0600121A2F11000D3
:1024180084F82330FFF7EAFA4FF43B73FAE5002318
:10242800238494F82330032B02D0013DE582AFE7E3
:10243800238C01339BB244F620629342238403D950
:102448000023A38302237AE7054A10230121A2F17E
:102458001000FFF7CBFA40F20A33DBE5280800202A
:1024680018080020264A4FF6FF532385022103232C
:10247800A2F11000FFF7BAFA4FF44873CAE5002337
:102488002384032384F8233094F82330032B84D146
:10249800238C01339BB244F6206293422384CFD825
:1024A800174A10230121A2F11000FFF79FFA4FF4F9
:1024B8004C73AFE50320FEF7B7FFF4E44C2E04D1CC
:1024C800013B4FF001017FF4DBAC94F82230012B83
:1024D8003FF40BAD94F822200123013A8DF8053022
:1024E800042A3FF600AD01A151F822F0B31E000006
:1024F800B31E0000EF1E0000CD1E0000CB1E000022
:1025080018080020064B93F82220032A05D093F8D8
:102518002200003018BF012070470020704700BF1C
:10252800E0070020044890F82230022B00F1040054
:1025380098BF0020704700BFE007002072B6024A2B
:1025480013680133136070473C080020034A13687E
:10255800013B136003B962B6704700BF3C08002016
:10256800FFF7ECBFFFF7F2BF50E8002F0B4640E83B
:10257800003C9CF0000FF7D11046704750E8003F30
:1025880043EA010240E8002C9CF0000FF6D1104607
:10259800704750E8002F02EA010340E8003C9CF035
:1025A800000FF6D11046704750E8003F03EB0102D8
:1025B80040E8002C9CF0000FF6D11046704750E818
:1025C800003FA3EB010240E8002C9CF0000FF6D17D
:1025D800104670470121FFF7D1BF0021FFF7D9BF8F
:1025E80010B590B1D0E9012301689B1ADBB20A60EB
:1025F800013BDBB2FF2B026802D10020107110BD35
:1026080011684C1C14600B70F2E70E20F7E738B520
:1026180004460020FFF7A4FF226863681168994206
:1026280013D9481E106011F8015CE368218A01FB88
:102638000535A36811791B1ADBB2994200D21371D0
:102648000020FFF78FFF284638BD0025F8E738B58A
:10265800054600200C46FFF783FF2A681368591CBB
:102668001160E968641A298AB4FBF1F41C7000202F
:10267800BDE83840FFF776BF19B1012905D006201B
:10268800704702B111700020704712B10430106019
:10269800F9E7072070478069704708B5FFF732FFF0
:1026A8000028FBD108BD0000F0B51C4B1B68834215
:1026B80085B007460C4603D01124204605B0F0BD6E
:1026C8008569FFF71FFF0028F6D194E8070005F198
:1026D8000C0686E80700A2882168A068FFF7D2FAEE
:1026E800044640B9AB6833B9FFF7D7FF0C4B1B78EA
:1026F800002B18BF0D24AB68002BDED0002CDCD0DB
:1027080002228DF8042001228DF80520AA6902967C
:10271800039201A938469847CFE700BF4008002038
:1027280044080020F0B51C4B1B68834285B007465F
:102738000C4603D01124204605B0F0BD8569FFF78B
:10274800E1FE0028F6D194E8070005F10C0686E8BA
:102758000700A2882168A068FFF766FA044640B916
:10276800AB6833B9FFF799FF0C4B1B78002B18BFE8
:102778000D24AB68002BDED0002CDCD002228DF8B3
:10278800042001228DF80520AA690296039201A966
:1027980038469847CFE700BF40080020440800208B
:1027A800F0B5134F3B68834285B0054603D011242A
:1027B800204605B0F0BD8669FFF7A4FE0028F6D1D3
:1027C800FFF70CFB044600B93860B368002BEFD064
:1027D80001228DF80420221C18BF01228DF8052043
:1027E80000220292B269039201A928469847DFE7BE
:1027F800400800202DE9FF410369B3F5007F054635
:1028080088462AD1174E33684BBB87693060B96058
:10281800BA6115491430FFF76DFA044640B9B8F1AA
:10282800000F16D1FFF739FF104B1B788BB10D2421
:1028380000233360B8F1000F0BD08DF8043001226B
:102848000293BB6903938DF80520BB6801A928464C
:102858009847204604B0BDE8F0810624F9E7112422
:10286800F7E700BF4008002079280000440800204E
:10287800F0B5244A4378244F137002783D68012A42
:1028880085B00646AC6923D005D3022A34D003208C
:10289800FEF7CAFD1AE0FFF745FE036823604FF410
:1028A800007363603B689B699B687BB17378002207
:1028B8009B1A18BF01238DF80530A36903938DF87F
:1028C80004200292A36801A92846984705B0F0BDE4
:1028D800A268002AFAD00221003318BF01238DF81C
:1028E800053004F10C030293A3698DF804100393D7
:1028F80001A928469047E9E7A268002AE6D0032103
:10290800EAE700BF4408002040080020826810B5AC
:1029180004462AB143690168006998470023A36007
:1029280010BD0EB403B5039929B102AA04AB42F84D
:10293800043D00F073F802B05DF804EB03B0704793
:102948000A2938B504460D4602D10D21FFF7F8FFD4
:10295800A3682268591CA160D554D4E901329A426F
:1029680004D32046BDE83840FFF7D0BF38BD00008B
:102978002DE9F84F9946DDE90A431746824688460D
:102988000A460126BA420FD24E4538BF4E4613F0CA
:10299800010B01D164B900240125B9F1010F1AD93D
:1029A80009F1FF397D43F8E7B2FBF7F20136E9E7B1
:1029B8009B070ED5B9F1000F0CBF30252025A64284
:1029C800EAD2013C29465046FFF7BAFF002CF6D15F
:1029D800E1E72025F3E7B8FBF5F39F42E2D9DFF8FA
:1029E8003890B8FBF5F3504619F8031005FB138827
:1029F800FFF7A6FFB5FBF7F5002DF2D1BBF1000FED
:102A080002D00CB1A64201D3BDE8F88F2021504670
:102A1800013CFFF795FFF4E7B06300002DE9F74F9D
:102A2800054690460E46002900F03A8116F8011B2B
:102A3800002958D0252940F0D180002702E047F02E
:102A480001071646324612F8013B2D2BF7D0302BE2
:102A580004D02B2B05D147F00407F2E747F0020713
:102A6800EFE700242A2B06F101021BD1D8F8003029
:102A7800191D1B68C8F800101C44164633782E2B05
:102A88001CD101364FF0000A314611F8012BA2F192
:102A98003000092814D80A2303FB0A23A3F1300ABB
:102AA8000E46F1E712F8013CA3F130010929E5D8F7
:102AB8000A2101FB0434303C1646D3E74FF0000AE4
:102AC800324612F8011B01F0FB0068281646F8D0C0
:102AD800692916D054D8582970D00ED825297DD008
:102AE8003378002BA2D12B7B002B00F0D98028460D
:102AF80003B0BDE8F04FFFF709BF632968D0642928
:102B0800EED1D8F80020D2F80090111D89EAE972B8
:102B1800C8F80010A2EBE9724FF0010B092A61DC3A
:102B2800D34538BFD3462CB1B9F1000F01DB790783
:102B380000D5013CBA0702D5BAF1000F04D0FB0753
:102B480002D4002C54D10024B9F1000F58DAC9F18D
:102B580000092D212846FFF7F3FE07F00302022A99
:102B680005D1BAF1000F02D1002C4DD10024CDE9D6
:102B7800004753460A2249462846FFF7F9FEAFE7C1
:102B8800732954D016D87029AAD1D8F800301A1D44
:102B9800C8F80020302128461C68FFF7D1FE7821AC
:102BA8002846FFF7CDFE00220823CDE90032214652
:102BB8001022E1E775292FD0782991D1D8F8001093
:102BC8000A1DC8F80020CDE90047534610222CE022
:102BD800D8F800301A1D1978C8F800202846FFF7E1
:102BE800AFFE7DE70A230BF1010B92FBF3F295E7A9
:102BF800A345A9D220212846013CFFF7A1FEA0E762
:102C08007807AAD52B21A5E7A345B0D230212846BD
:102C1800013CFFF795FEA7E7D8F80010CDE900477B
:102C28000A1DC8F8002053460A220968A4E7D8F804
:102C380000301A1DC8F80020F907D3F8009012D503
:102C48004F46A7EB090B17F8011B41B9A345BFF481
:102C580047AF20212846013CFFF772FEF6E72846D9
:102C6800FFF76EFEEDE7B9F1000F17D0484602F006
:102C7800DBFE0746BC4200D954B909F1FF3919F8FF
:102C8800011F00293FF42CAF2846FFF759FEF6E74D
:102C980020212846013CFFF753FEEBE74F46E9E7C2
:102CA80003B0BDE8F08F2DE9F047B0F806904479FD
:102CB800D2F800A09DF8208009FB04F4043C0646E5
:102CC8000AEB0300A0420F4688BFA4EB030A191DB4
:102CD800C2F800A0B1FBF9F509FB15114DB9A9EB34
:102CE8000104544528BF5446BAF1000F04D1BDE889
:102CF800F0873668013DF1E704317B1970182246E8
:102D0800B8F1000F0ED001461846AAEB040A02F0EB
:102D18000DFED145254436684C464FF0000128BFCA
:102D28005446E1E71946F0E7FFF75ABCF8B546798B
:102D38000146721E0546002393422D6803D30024E2
:102D4800A64202D8F8BD0133F6E70F682846FFF718
:102D58007EFC01343946F3E72DE9F843068ACD1C99
:102D68000746FFF754FC043E35440446B5FBF6F528
:102D7800F0B14FF48073EDB28380C680013D0760E7
:102D880081464FF00008A84512D23846FFF73FFCAD
:102D9800064648B163790133637108F10108C9F83F
:102DA800000007608146EEE72046FFF7BFFF344684
:102DB8002046BDE8F88301210430FFF7F5BB10B5C4
:102DC800012104460430FFF7FAFB10F0FF0F04D18D
:102DD8002046BDE81040FFF7A9BF10BD1FB504ACE1
:102DE80044F8042D002200922246FFF75CFF04B04D
:102DF80010BD1FB504AC44F8042D012200922246F0
:102E0800FFF751FF04B010BD836800225A609A6032
:102E1800C3E90422DA601A60704700007FB50378BE
:102E28008DF804304368029383688DF80C30C368CA
:102E3800049303698DF81430054A064B01A853F82A
:102E4800213052F82110984707B05DF804FB00BF05
:102E58004808002054080020F0B50646944616F8A5
:102E6800047B194A42F827C0184A42F82730184B01
:102E78000C460FCB85B06D4685E80F0023788DF89A
:102E8800003063788DF80130A3788DF80230E3784C
:102E98008DF8033023798DF8053063798DF8063085
:102EA800A3680293237B8DF80C30BCF1000F637B81
:102EB8008DF80D30074A3B4608BF002229463046A8
:102EC80000F052FA05B0F0BD540800204808002070
:102ED800C0630000252E000000F1804000F5C040CE
:102EE800002382B0036003680193019B02B070471E
:102EF800800000F1A040D0F8003723F44033C0F838
:102F08000037D0F8003743EA0141C0F8001770478E
:102F1800054B4FF0FF32072843F8202084BF1B18C9
:102F280083F84820704700BF6008002010B5164C91
:102F380094F8583033BBFF21E2180133202B82F874
:102F48003010F9D10021C8B2FFF7E2FF01310C2996
:102F5800F9D1042200210D4802F011FD0C4BC022CA
:102F680083F8062340221A604FF4BE70FFF7B4FFBF
:102F7800084B4FF00042C3F80423012384F858306B
:102F8800002010BD0820FCE760080020B4080020DD
:102F980000E100E000600040034B93F85800003067
:102FA80018BF0120704700BF60080020F0B5394DF8
:102FB8002C18944694F93040002C68DA8E78C6F3C1
:102FC8004006002E15BF0023082308270C27BB4204
:102FD80001D10420F0BD55F8232001324FEA8304C3
:102FE80041D12F1845F823C087F8303016B9EA18B0
:102FF80082F848008A78560716D4D70735D5820054
:1030080002F1A042D2F8006726F00206C2F8006773
:10301800214FC60800F0070C012202FA0CF217F83B
:1030280006C042EA0C02BA558A780E7812F00202FB
:1030380024D004F1804303F5C0430002D3F81025DF
:1030480022F4473222F44072C3F810253604D3F82C
:10305800102500F4F85006F4403630431043C3F806
:1030680010050020B6E70133B1E74E7800F5E072AD
:103078004FF0A047B60047F82260C9E7083B2B4449
:1030880093F8500040EA861683F85060E9E7082074
:10309800A0E700BF60080020B408002038B5204C25
:1030A800251895F93020072A18DD224492F848306F
:1030B8009B09032B0DD14FF0A043D3F81035C34023
:1030C80013F0010F0CBF02210321BDE83840FFF7C0
:1030D8000FBF012B14BF03210221F6E7D3B2072B40
:1030E8001CD8930003F1804303F5C043D3F81005BF
:1030F80040F00100C3F8100502F14000800080B2E2
:10310800FFF7EAFE51B195F9303054F823302BB16E
:10311800012303FA02F2034BC3F8042338BD00BFAE
:1031280060080020006000404FF0A043D3F810353D
:1031380023FA00F000F00100704700002DE9FF4776
:103148000024584A584E594D019401211368A2F59C
:10315800C040012B80B206D1D6F804330B4202D00E
:10316800FFF7BAFE0C430432AA424FEA4101EDD1FF
:103178004F4B1B68012B0AD14FF4BE70FFF7ACFE12
:103188004FF0A04344F00044D3F81035019314F0F5
:10319800FF0F1AD0474F00250126344210D0AB004C
:1031A80003F1804303F5C043D3F81005D3F8101595
:1031B80057F82530C0F30420C1F3014103B1984703
:1031C8000135082D4FEA4606E7D1002C66DA0022C1
:1031D8004FF0FF33CDE90223DFF8D890012700260E
:1031E80034464FF0A04809EB060393F95020531CCE
:1031F80045D0D2B222F0C005E90804A8084402F07C
:10320800070310F804CC07FA03F31CEA030F36D0BF
:1032180009EB050C92099CF930C059F82CA0BAF1B9
:10322800000F0AD1032A2AD10DF1080E1EF801C099
:103238004CEA030C0EF801C001E0032AF4D005F5AE
:10324800E07110F80C0C58F821101842C1F3014134
:1032580005D0022913D1032A0BD1114604E0032912
:103268000DD1032A05D102212846FFF741FE01347A
:10327800E4B2BAF1000F02D011462846D047013611
:10328800042EB0D154B14FF0A043019AD3F81035B1
:10329800934203D00193029B0393A0E704B0BDE8D7
:1032A800F08700BF006100400060004020610040DE
:1032B8007C61004060080020014B1B68184700BF74
:1032C800BC08002038B50A4B98420D460CD10020A6
:1032D800FFF746F9074B1C7914B901221D601A71D2
:1032E8000020FFF73FF90CB9002038BD1120FCE79A
:1032F80000200040BC080020034B984201BF034B4C
:1033080000221A601A71704700200040BC08002093
:10331800114BD3F8183182B0E3B1104B00221A6078
:103328001B680193019B0E4BD97FFF2907D0987F1B
:1033380001228A404FF0A04148B1C1F80C25002273
:103348005A771A72D3E90021064802B01047C1F82B
:103358000825F4E702B070470030004018310040FB
:10336800C4080020CC0800202DE9F74F06796D4FDE
:1033780001934FF0240A0AFB06FA07EB0A0B914661
:103388009BF81C20009780460C46002A40F0C68017
:10339800056865492846FFF795FF002840F0C0807A
:1033A800009B227B43F80A90019BCBF8043094F8E9
:1033B80000C04FF0A041012303FA0CF3012A94BF87
:1033C800C1F80C35C1F808350CF5E0734FF0010E63
:1033D80041F823E06378FF2B1FBF0EFA03FEC1F804
:1033E8000CE503F5E07E4FF0030A18BF41F82EA064
:1033F800A17808BF4FF0FF33FF2917BF01F5E07E22
:103408004FF0FF374FF0A04A4FF0040B08BF019769
:10341800009F1CBF01914AF82EB04FF0240E0EFBFE
:10342800067E8EF82010E1788EF81F10FF2919D03B
:1034380094F804A04FF0010B0BFA01FB4FF0A04EDB
:10344800BAF1000F61D0CEF80CB501F5E0714FF07C
:10345800030B4EF821B0DFF8CCE0242101FB06E194
:1034680081F81EA0C5F808C5C5F80C35019BC5F83C
:103478001035A368C5F82435637B003318BF0123D2
:10348800022A45D0032A46D0012A01D143F002037B
:10349800C5F85435A379C5F8C035B9F1000F02D085
:1034A8004023C5F804330723C5F80035B9F1000FE8
:1034B80020D0D8F8003062791B0B59B20029A8BF78
:1034C80001F16044DBB2B8BF03F00F054FEA4212C6
:1034D800B4BF164C04F56144D2B2B4BF625584F847
:1034E800002303F01F03012202FA03F34909104ADB
:1034F80042F82130009A242303FB06260023737721
:103508000123337703B0BDE8F08FCEF808B59CE708
:1035180043F00403BCE743F00603B9E70820F1E7EA
:103528001120EFE7C40800201933000014ED00E073
:1035380000E100E0F8B505791C4C006824236B43D2
:10354800E618E358D3B1030B5AB2520903F01F032C
:1035580001212032164F01FA03F347F82230154BA8
:10356800C0F80833737F4BB14161D0F80431002BA8
:10357800FBD0242303FB054300225A77242303FBB3
:103588000543002693F82030FF2B1FBF03F5E07397
:103598004FF0A042022142F82310C0F80065FFF75F
:1035A800ABFE242303FB05442677F8BDC40800209E
:1035B80000E100E0520108002DE9F3410579474E8A
:1035C80024236B431446F2180F46517F8046002986
:1035D80040F08180F35823B114F0140F04BF012385
:1035E800537797E80F004FF0240C0CFB056C0CF197
:1035F8000C0E8EE80F009CF81F20FF2A08D09CF8BC
:103608001E10012393404FF0A042C1B1C2F8083503
:10361800396821B101F06043B3F1005F06D1BA689F
:1036280082B102F06043B3F1005F0BD0242303FBA7
:10363800056500236B77102002B0BDE8F081C2F861
:103648000C35E5E7D8F800307868C3F84415C3F8B6
:103658004805F968C3F834250022C3F83815C3F8BB
:103668001821D3F818210192019A14F0010218BF09
:103678000122C3F8502514F0020218BF0122C3F832
:10368800402522075CBF01221A6124226A43B258EE
:10369800B2B9D3F81821002AFBD0242303FB05650F
:1036A800EA7FFF2A07D0A87F012393404FF0A0426A
:1036B80018B1C2F80C350020BEE7C2F80835BBE7E0
:1036C80014F004004FF0400202D0C3F80823F2E7D8
:1036D800C3F80423B0E71120AEE700BFC4080020F8
:1036E800F7B506792F4D0C237343EF183C7A002C5D
:1036F80056D1EA504B687B60477903682246D0B2BE
:10370800874243D81A0B54B2C878002CA8BF04F1DA
:103718006047D2B2BABF02F00F0C234F07F56147DA
:103728004FEA4010C0B2B4BF07F80C0087F8000396
:103738006409012002F01F021C4F00FA02F247F848
:1037480024204A78D3F8044502F0030224F0030445
:103758002243C3F80425D3F808458A7824F00304E3
:1037680002F003022243C3F80825D3F810450A786B
:1037780024F00F0102F00F020A43C3F810250C23AE
:1037880003FB06552872002003B0F0BD02F150007B
:10379800013243F8204053F8200001900198AEE729
:1037A8000820F1E7E808002014ED00E000E100E05F
:1037B800036801221A600379034A0C2101FB0323E1
:1037C80002221A72704700BFE808002037B54FF48C
:1037D80080348C4000687BB101F150039B000025C8
:1037E800C550C3580193019BC0F8044301F5A87163
:1037F80040F8212003B030BDC0F80843F6E7F0B424
:1038080004689DF81070D4F8005240F201168E40FA
:1038180025EA0605C4F80052D4F800522B43C4F830
:1038280000323B46F0BCFFF7D1BF00002DE9F34161
:10383800104C114F114E00254FF480382368A4F521
:10384800004080B26BB1D7F8043308FA05F21A4287
:1038580007D00023236023680193019BD6E9003138
:1038680098470135042D04F10404E7D102B0BDE8FE
:10387800F08100BF4081004000800040E80800203F
:10388800064A1368B0F5A07F03F10101116003D166
:1038980003F00300FDF770BA704700BFA00D0020C9
:1038A8000E2870B502D00F282FD070BD1A4A137891
:1038B8004BB3013B184E13703078184CFDF71AFCC7
:1038C800174B32781749E41AE4082404164B44F0DD
:1038D8000304054653F822202046FDF7A5F815B144
:1038E8002846FDF7A1FD114B114901251D64D3F8A8
:1038F8004065DD6032462046FDF796F80D4B1D7099
:103908000D4B1E60D1E71723D4E7034A1378172B12
:1039180014BF01330023CDE79C0D0020F0610000A7
:10392800C0610000346500008064000000A0004011
:1039380060640000C00D0020C40D0020F8B501210E
:1039480019481A4C1A4D00F045FC1A4B1A49E41A4A
:10395800E408240444F003042046FDF761F8032634
:103968002F4695F8A53433B1002000F019FB013E2D
:1039780085F8A504F5D197F8A5342BB10F49204651
:10398800BDE8F840FDF74CB80D492046FDF748F86A
:1039980001220C49064801F021FA87F8A40408B16D
:1039A8000949ECE7F8BD00BF08000020F0610000FD
:1039B800F4080020C0610000AA650000C765000087
:1039C800E3650000BF620000F66500002DE9F843DA
:1039D8002248234B234C2449C01AC008050445F04B
:1039E80003063046FDF71CF8204904F50C7001F079
:1039F800C0FC84F8A40470B9DFF8889004F517783F
:103A080004F2652741461A4801F0E6FC84F8A4044C
:103A180038B1184900E018493046BDE8F843FCF7CA
:103A2800FFBF94F865324BB194F86432DB0645F079
:103A380005000BD53A461149FCF7F6FF94F86532B4
:103A4800002BDFD10E4945F00500E6E73B46D4F8E8
:103A58005C224946FCF7F2FFF0E700BFF061000086
:103A6800C0610000F4080020E0640000F664000073
:103A7800240B002012650000F8640000296500008E
:103A8800BF6200003765000038B50E4D0A4604468F
:103A9800014605F51D7001F0C9F90B4B85F8A40422
:103AA80002460A481B1ADB081B0443F003002AB12C
:103AB80022780749BDE83840FCF7B6BF22460549D9
:103AC800F8E700BFF4080020F0610000C0610000C2
:103AD800046600002966000038B5054601F0A4FF19
:103AE8000F4C024604F29C43294604F51D7001F070
:103AF80028FB0C4B84F8A40402460B481B1ADB086D
:103B08001B0443F0030022B10849BDE83840FCF724
:103B180087BFD4F89C240649BDE83840FCF784BF29
:103B2800F4080020F0610000C0610000D2680000C5
:103B3800E2680000F0B52C4B2C4C2D492D4DE41AB1
:103B4800E408240444F00304FFB006462046FCF7CA
:103B580067FF4FF4FA722EB3002101A801F00FFF9E
:103B6800B6F5FA7F324605F5946328BF4FF4FA722A
:103B780001A905F51D7001F03EFA85F8A40450B1BD
:103B88001D492046FCF74CFF01AA1C492046FCF7BA
:103B98004BFF7FB0F0BDD5F8A02419492046FCF7AB
:103BA80043FFF1E7314601A801F0E9FE134F05F59F
:103BB8009466D5F88822D5F880329A42E9D03346FF
:103BC8004FF4FA7201A90F4801F015FA85F8A40418
:103BD80020B109492046FCF723FFDAE701AA394654
:103BE8002046FCF721FFE4E7C0610000F061000017
:103BF80048660000F408002055660000736600005F
:103C080064660000680B0020014801F0A5BB00BFF6
:103C1800680B002010B5154A154C106851681289B8
:103C28009AB002AB03C321461A8005A8532201F0BB
:103C38007DFE21466B4651F8530F496803C30D4B6F
:103C4800012283F8A524FFF779FEFFF7BFFE322192
:103C580002A8FFF719FF05A8FFF73EFF6846FFF720
:103C68003BFFFFF7D1FF1AB010BD00BF766400001C
:103C7800F4630000F40800204FF080430122002183
:103C8800C3F81825C3F804119A60D3F80421002A50
:103C9800FBD0704708B505490320FDF737FA18B17E
:103CA800BDE80840FDF7C0BB08BD00BFA93800004B
:103CB800F0B54FF400419FB00020FCF7EFFC08B1CD
:103CC800FDF7B2FBFCF726FC3F4C404B4049E41A99
:103CD800E408240444F003042046FCF7A1FEFFF79F
:103CE800CBFFFDF7EFFD08B1FDF79EFB39492046F4
:103CF800FCF796FEFFF7CEFF374A92E8030003ABC6
:103D080083E80300354A36481946FFF7E9FC08B14D
:103D1800FDF78AFB334B3449D3F810253048012589
:103D28000026D2B22B4621FA02F200953146FFF75F
:103D380066FD2B48FFF73CFD2C4B2D490322C3F8A9
:103D480008250922C3F80465DD60C3F810254FF47F
:103D58008032C3F8042320461D601D64FCF760FE12
:103D6800244DFFF757FF372445F001054FF47A40FB
:103D7800A847013CFAD1FFF74DFF1F4C1F4D204FBC
:103D88002378C3B10026322128462670FFF77CFE2F
:103D98003A681C4905A801F0A4FD05A8FFF79CFE98
:103DA800FFF732FF01212846FFF76EFE3046FFF786
:103DB800C1FEFFF729FFFCF7CBFC0028FBD140BF71
:103DC80020BF20BFDCE700BFF0610000C061000039
:103DD8005C650000706500005064000089380000D0
:103DE800586400000080004000127A0000A00040E3
:103DF8008565000070640000C00D00209C6500000F
:103E0800C40D0020A66500000369C1688B429DBFF0
:103E18008268D21802F1FF3203F1FF3394BF501ABF
:103E2800581A70472DE9F041D0E902670446F61B9D
:103E38004068964288461546384405D901F076FD13
:103E48003D44E560BDE8F0813246AD1B01F06EFDF2
:103E58002A4608EB0601606801F068FDF1E72DE9E4
:103E6800F843C5680646894617464FF00008346986
:103E7800B3687068A54228BFE418013C621B5C1B4C
:103E8800BC4228BF3C46944228BF144649462844B1
:103E9800224601F04BFDB3682544AB4208BF00251C
:103EA8003F1BA044A144F560E1D14046BDE8F8833A
:103EB80010B5114C114AA2610223C4E90433104B16
:103EC800E361A2644FF400730E4A2362E2640023A4
:103ED80010220D49A362E01D6362E362A365636576
:103EE800E365226501F07EFD0849204601F07AFD70
:103EF8002023A37110BD00BFC80D0020F468000086
:103F0800500E0020400E0020FD68000001690000EE
:103F1800F8B5184C182300FB033503FB0040254473
:103F2800C46A012C0F46164611D003D3022C1BD0AD
:103F380000240AE02846FFF767FF864205D8324684
:103F480039462846FFF76EFF34462046F8BD284616
:103F5800FFF75AFF8642344628BF044622463946B0
:103F68002846FFF75FFFF0E72846BDE8F840FFF76F
:103F780076BF00BFC80D0020FFF79ABF0B78032B50
:103F880009D8054B087A1A680C2300FB03234A78E2
:103F98001A7200229A7270475010002020BF704792
:103FA80038B5194B1B78834202462BD9174D00EBC5
:103FB8004004A400296808590B1918B3597AC9078D
:103FC80002D4587AC0B238BD596809B91049596045
:103FD8000121997203680F491B68984728B12B681B
:103FE8001C44607AEEE75B6898472B6823449A7A0A
:103FF800002AF8D11A7A002AF1D15A7A02F0FE0280
:104008005A72ECE70320DEE754100020501000201D
:10401800A53F0000853F0000074B1B78834281BF06
:10402800064B1B6800EB400003EB800086BF407A1C
:10403800C0B20120704700BF54100020501000206B
:10404800F0B516461B4A1278824285B02ED9002B4D
:104058002CD0194F00EB400084003D682A192D59D7
:1040680035B3507AC00723D4CDE901630123039106
:1040780093722B6828465B69984703689E4202D36F
:10408800012005B0F0BD2B6801A99B682846984718
:104098000028F5D13B6823449A7A22B9187A00306F
:1040A80018BF0120EDE75B689847F3E70420E8E7CD
:1040B8000320E6E75410002050100020F0B5164603
:1040C8001E4A1278824285B032D9002B30D01C4F5C
:1040D80000EB400084003D6828192D59002D29D097
:1040E800427AD20726D4427A520725D4CDE9016311
:1040F8000123039183722B6828465B6998470368FC
:104108009E4202D3012005B0F0BD2B6801A9DB68EF
:10411800284698470028F5D13B6823449A7A22B963
:10412800187A003018BF0120EDE75B689847F3E77D
:104138000420E8E70320E6E70220E4E75410002023
:104148005010002073B5214B1B788342144639D98F
:1041580001291DD003D3022927D0012016E002AD82
:10416800012300EB400005F8013D194E8400336837
:10417800185903682A461B690021984708B1112875
:1041880003D19DF80730002BF1D1002002B070BD9B
:104198000F4B00EB40001B6853F82000A0B10368E8
:1041A8005B69984703682360EFE7094B00EB400021
:1041B8001B6853F8200038B103685B699847436867
:1041C8002380E2E70420E1E70320DFE75410002022
:1041D80050100020024B1860024B1970704700BF46
:1041E800501000205410002042884378007843EA99
:1041F800022340EA032070470B0A017043700B0C3E
:10420800090E8370C1707047024400F8011B904288
:10421800FBD1704743690239023B8B4283BF438914
:10422800806A01FB030000207047026810B552B194
:1042380011460B4611F8014B202C0CD93A2CF8D119
:10424800511C8B4202D04FF0FF3005E01278302A23
:10425800F9D101330360002010BD38B50D4604467E
:1042680018B900232B60092038BD0368002BF8D04B
:104278001A78002AF5D0D98882889142F1D15878E5
:10428800FFF7CAFE10F00100EBD123682B60EBE7C3
:1042980001380A4411F8013B00F8013F9142F9D175
:1042A8007047CA7E8B7E032843EA022301BF487DFC
:1042B8000A7D42EA002243EA024318467047C2F3E5
:1042C80007238A76CB760378032B01BF120C0A7575
:1042D800120A4A757047F8B5C4690023651E184666
:1042E8002E2615F8012F202A00F101000AD0052AF0
:1042F80008BFE522092802BFCF1801337E72CF1804
:1043080001337A720B28ECD10B4400225A72E37AFB
:104318000B7204F11C00FFF767FF086004F1160038
:10432800FFF762FFC880000C8880F8BDF8B5C56A41
:1043380000F13007044601232A4639464078FFF742
:10434800BDFEA0B9236AA269E070EB1A934201D3BB
:104358000020F8BDA678012EFAD9A36960781D441B
:104368002A4601233946FFF7A9FE013EF3E701205B
:10437800EFE7C3780BB1FFF7D9BF18467047C36A98
:104388008B4270B506460D4612D0FFF7F2FF044681
:1043980060B92A46012306F130017078FFF750FE14
:1043A80000281CBF4FF0FF350124F562204670BD80
:1043B8000024FBE7002310B5C3704FF0FF33C3623E
:1043C8000446FFF7DCFF30BB94F82F2294F82E3216
:1043D80043EA02234AF6552293421ED194F830301C
:1043E800E92B05D0236B104A03F0FF13934216D133
:1043F80004F16600FFF7F8FE0C4B20F07F4098426E
:104408000FD004F18200FFF7EFFE094B984214BF6A
:104418000220002010BD0420FCE70320FAE7022058
:10442800F8E70020F6E700BFEB0090004641540093
:10443800464154332DE9F043002385B00B600F4605
:104448001546FFF7F2FE061EC0F22E81994B53F86F
:104458002640002C00F02A813C60237805F0FE05F8
:1044680073B16078FFF7D8FDC10709D4002D00F0BB
:10447800F68010F0040000D00A2005B0BDE8F083F3
:104488000023F0B223706070FFF78AFDC20700F1C5
:104498000F810DB14307EFD400212046FFF78AFFB3
:1044A800022840F0E78004F5FB75002115F8040C9C
:1044B80010B12846FFF798FE4DF821000131042974
:1044C80005F11005F2D100265DF82650002D00F008
:1044D800C88029462046FFF76DFF012800F2C280F8
:1044E80094F83C2094F83B3043EA0223B3F5007F6C
:1044F80040F0C48094F8473094F8466056EA0326A2
:1045080004D104F15400FFF76FFE064694F840907A
:10451800A66109F1FF33012B84F8029000F2AE8006
:1045280094F83D70BBB26381002B00F0A7807B1E1E
:104538003B4240F0A38094F8423094F8418048EA26
:10454800032818F00F0FA4F8088040F0978094F81B
:10455800441094F8430050EA012003D104F15000BC
:10456800FFF742FE94F83F2094F83E3053EA0223C6
:1045780000F0848006FB09FC03EB181262449042A9
:104588007CD3811AB1FBF7F1002977D04FF6F57784
:10459800B9428CBF0327022740F6F570814298BFC5
:1045A80001272B4402312A44032F6161E56123620C
:1045B800A26267D194F85B2094F85A3053EA022338
:1045C8005CD1B8F1000F59D104F15C00FFF70CFE83
:1045D8006062890001F2FF11B6EB512F4ED34FF004
:1045E800FF33C4E90333032F4FF0800323712FD126
:1045F80094F8612094F8603043EA0223012B27D114
:10460800691C2046FFF7BBFE10BB94F82F2294F8D4
:104618002E32207143EA02234AF65522934217D1DB
:1046280004F13000FFF7E0FD234B984210D104F568
:104638000570FFF7D9FD214B984209D104F50670A2
:10464800FFF7D2FD206104F50770FFF7CDFDE060AC
:104658001B4A2770138801339BB21380E380002024
:104668000BE703200136042E7FF42EAF042805D172
:10467800012002E70428FBD0012801D90D20FCE61F
:1046880000252DE7B8F1000FF8D0022F4FEA4100BE
:1046980018BF4018634418BF01F0010163620CBFE2
:1046A800014601EB500195E70B20E6E60C20E4E615
:1046B8000320E2E6581000205252614172724161B3
:1046C8005C10002001292DE9F04705460C461746E5
:1046D80072D943698B426FD90378022B3FD0032BE1
:1046E80050D0012B68D101EB5108016A01EB582128
:1046F800FFF745FE064638BB05F1300908F1010A07
:10470800C8F3080814F001041FBF19F8083003F0B3
:104718000F023B0103F0F00314BF1343FBB209F887
:104728000830296A0123EB7001EB5A212846FFF76C
:1047380026FE064640B9CAF3080A44B1C7F307176C
:1047480009F80A700123EB703046BDE8F08719F8C4
:104758000A30C7F3032723F00F031F43F0E7016A6A
:1047680001EB1421FFF70BFE06460028ECD164008C
:1047780005F1300304F4FF741A191F55C7F307270E
:104788005770DFE7016A01EBD411FFF7F8FD064621
:104798000028D9D1A40005F1300304F4FE741C44A8
:1047A8002046FFF721FD27F0704700F0704139439C
:1047B8002046FFF721FDC5E70226C5E70129F8B520
:1047C80005460C4652D9436999424FD20378022BC9
:1047D80029D0032B38D0012B48D101EB5106016AAF
:1047E80001EB5621FFF7CBFD10B14FF0FF30F8BDBC
:1047F800771C296AC6F308062E4401EB5721284680
:1048080096F83060FFF7BBFD0028EED1C7F3080724
:104818003D44E30795F8300046EA00204CBF000904
:10482800C0F30B00E3E7016A01EB1421FFF7A7FDD2
:104838000028DAD16400303504F4FF742B19285DA0
:104848005B7840EA0320D2E7016A01EBD411FFF755
:1048580096FD0028C9D1A40005F1300004F4FE74C7
:104868002044FFF7C1FC20F07040C0E70120BEE7FC
:104878002DE9F041804605680F4671B9EE68F6B13A
:104888006B69B34298BF012634466B690134A34271
:1048980018D8012E15D8002409E02846FFF78EFF06
:1048A8000128044637D9431C04D14FF0FF34204671
:1048B800BDE8F0816B698342F9D83E46E4E70126FA
:1048C800E2E702242146D8F80000FFF777FF30B16D
:1048D800012820D00130E8D0B442D6D1DBE74FF030
:1048E800FF3221462846FFF7EDFE90B957B9D5E9C2
:1048F8000432023A9342EC600FD32B7943F0010360
:104908002B71D4E7224639462846FFF7DBFE0028FC
:10491800EDD00128C9D00124C9E7013B2B61ECE7A0
:10492800F8B50D46012D074611462CD90468636970
:10493800AB4228D92AB14FF0FF322046FFF7C2FE1A
:1049480030B929463868FFF739FF064608B900200C
:10495800F8BD012817D0431C17D00022294620464D
:10496800FFF7B0FE0028F3D1D4E90432911E8B4240
:1049780005D201332361237943F001032371B24245
:104988003546DED8E3E70220E2E70120E0E7F8B5A4
:104998000446FFF7EEFC0546002842D12378032B96
:1049A80037D12779012F34D104F1300601464FF46D
:1049B80000723046FFF728FC552384F82E32AA23CC
:1049C80084F82F3252234122722184F8303084F83F
:1049D8003130612384F8323084F8332084F8162289
:1049E80084F8173284F8141284F8151204F5067046
:1049F8002169FFF701FCE16804F50770FFF7FCFB8C
:104A0800E26960780132E2623B463146FFF756FBC5
:104A18002571002211466078FFF794FB003018BF1B
:104A28000120F8BD826838B5002305460468036193
:104A380092B92378022B01D9636A73B923890BB918
:104A4800022038BD636AAB61AB696A61002BF7D09D
:104A58003034EC610020F4E7134661891A4661B9E5
:104A680011462868FFF7AAFE431C02460BD001280E
:104A7800E6D963699842F3D3E2E719462046FFF77F
:104A8800C9FBA861E0E70120DBE783692DE9F0476E
:104A980005460F46ABB1026902F12008B8F5001FC0
:104AA8000FD2C8F308090468B9F1000F4DD1416964
:104AB8000133836139B92389B3EB581F45D80023E3
:104AC800AB6104200BE06389013B13EA58233CD116
:104AD8002046FFF773FE0128064602D80220BDE8EB
:104AE800F087421C01D10120F9E76369834226D887
:104AF800002FE4D069692846FFF7BAFE0646002869
:104B080036D00128EAD0431CEDD02046FFF731FC0F
:104B180007460028E7D101464FF4007204F130003F
:104B2800FFF772FB31462046FFF774FB4FF0010A8E
:104B3800E06263899F420FD3E36ADF1BE7626E611D
:104B480031462046FFF766FBA86130344C44C5F86F
:104B58001080EC610020C2E784F803A02046FFF72C
:104B6800E5FB0028BFD1E36A01330137E362E0E7E0
:104B78000720B4E72DE9F041076804460D4611F80F
:104B8800013B2F2BFAD05C2BF8D00023A3602B78A5
:104B98001F2B57D904F120060B2230462021FFF79E
:104BA80033FB002210464FF0080C2B5C202B00F141
:104BB80001010DD92F2B01D05C2B4BD16818411B5B
:104BC80010F801CBBCF12F0FF9D0BCF15C0FF6D077
:104BD8000D44002A58D094F82020D4F80080E52A03
:104BE80004BF052284F82020212B34BF042300238E
:104BF80084F82B302046FFF715FF002860D1A16903
:104C08004046FFF7BCFB00285AD1E3691A78002A0E
:104C180061D0DA7A02F03F02A271DA7A11070CD475
:104C280003F10B0C314613F8012B11F801EB9C45ED
:104C3800A2EB0E0242D0002AF5D000212046FFF751
:104C480024FFDAE7802384F82B302046BDE8F041C2
:104C5800FFF7E8BE2E2B52D0944515D903F17F0EED
:104C68005FFA8EFEBEF11E0F10D903F1200E5FFA17
:104C78008EFEBEF11C0F09D9DFF8A4E01EF8010F63
:104C8800002843D08342F9D1062022E015F801E03C
:104C9800AEF140013E2900F1020003D98EF08001F7
:104CA8007C29F1D80CF1FF318A42EDD2511CB35462
:104CB80006F801E002320146084676E7002ABCD130
:104CC80094F82B3048B1042803D113F0040F08BF1F
:104CD8000520BDE8F0810420F2E75A07F9D4A3794A
:104CE800DB060AD523693878C3F3080307F13001D6
:104CF8001944FFF7D6FAA0604EE70520E9E7BCF1B2
:104D08000B0FC1D008224FF00B0CD5E7A3F16100BF
:104D1800192801D8203BDBB2B3540132CCE700BFDD
:104D28000769000038B5044605680420A16909B977
:104D3800A8B11CE02846FFF722FBC0B9E3691A783E
:104D4800C2B1DB7AE52A03F03F03A37109D02E2A0A
:104D580007D00F2B05D023F02003082B01D000200B
:104D680038BD00212046FFF790FE0028DED0002342
:104D7800A361F5E70420FAE770B505460668FFF772
:104D880051FE044628BBA9693046FFF7F8FA0446E5
:104D9800F8B9EB691B78E52B14D1A9693046FFF700
:104DA800EEFA044660B901462022E869FFF72CFABA
:104DB8000B2205F12001E869FFF76AFA0123F37075
:104DC800204670BD002BE8D001212846FFF75DFE84
:104DD800D7E7042C08BF0724F2E700001FB5CDE988
:104DE800001004A8144640F8041DFFF71EFA011E1F
:104DF80015DB0D4B53F8210008B100220270019811
:104E080008B10022027043F8210030B1012C08D10A
:104E1800002201A96846FFF70DFB04B010BD0B2066
:104E2800FBE70020F9E700BF581000202DE9F04FFC
:104E38008FB0154601910446002800F0DA8002F090
:104E48003F06324602A901A8FFF7F4FA07460028F0
:104E580058D10DF13809029B49F82C3D0199484673
:104E6800FFF788FE20B99DF93730002BB8BF062020
:104E780015F01C0F56D000284BD0042842D14846C4
:104E8800FFF77AFF00283DD146F00806310753D5D1
:104E98000A9BDDF808A000252121482219745A74BC
:104EA8009D73DD730A9B19765A769D75DD750A9B8D
:104EB8002022DA72DDF828B09AF800005946FFF788
:104EC800F0F92A4680465046FFF7F9F90A9B1D7704
:104ED8005D779D77DD77029B0122DA70B8F1000FCC
:104EE8002AD02A4641464846D3F82CA0FFF718FD99
:104EF80040B951460298FFF742FA029A08F1FF3387
:104F0800D360C8B100232360074638460FB0BDE818
:104F1800F08F9DF8123013F0110F66D16807B5D5E0
:104F28000820EFE70028EDD19DF81230DA065AD4B0
:104F3800AD0701D5D80758D4029DDDF82880EB6A63
:104F48002362C4F8248028783107414648BF46F0D8
:104F58004006FFF7A6F9A06008F11C00FFF744F926
:104F680004F12808EB88E06000214FF40072256006
:104F7800A38026746174E16161614046FFF744F9DA
:104F8800B206C2D5E568002DBFD0029BA1685E8934
:104F980065617602AE4218D30020A1610028B1D124
:104FA800C5F30803002BB0D0029E3046FFF732F954
:104FB800E8B100EB5522E261012341467078FFF722
:104FC8003FF80028A1D001209CE72068FFF7F6FBF6
:104FD80001280146A5EB060503D9431CDAD10120B7
:104FE800DBE70220D9E704208CE707208AE70220C4
:104FF80088E7092789E72DE9F04F9B4685B000230C
:105008008946CBF8003003A904461546FFF725F971
:105018000646F8B9667CEEB9237CD90740F18F8043
:10502800E3686769DF1BAF4228BF2F4604F1280AEF
:1050380087B16269C2F30803002B72D1039B5B89B5
:10504800013B13EA522315D142B9A06801280CD8B4
:1050580002266674304605B0BDE8F08FA169206865
:105068000093FFF7ABFB009BF0E7421C01D1012640
:10507800EFE7A0610193039BA16900931846FFF72E
:10508800C9F80028E4D0019B7D0A03EB00082AD068
:10509800009A0098528940785919914288BFD51AC8
:1050A8002B4642464946FEF7CBFF0028DFD194F94C
:1050B8001030002B0BDAE069A0EB0800A84206D2FA
:1050C8004FF40072514609EB4020FFF7E1F86D02FA
:1050D80063692B446361DBF800302B44A944CBF8A7
:1050E80000307F1BA4E7E269424518D094F91030DC
:1050F800002B0BDA0098012351464078FEF7DEFFBB
:105108000028B4D1237C03F07F0323740398012380
:10511800424651464078FEF793FF0028A7D1C4F8CD
:105128001C806169C1F30801C1F50075BD4228BF43
:105138003D462A4651444846FFF7AAF8C8E70726DD
:1051480088E72DE9F04F9B4685B000238946CBF8C8
:10515800003003A904461746FFF77FF806460028E3
:1051680040F08980667C002E40F08580237C9A0779
:1051780040F1AA806369FB4200D3DF4304F1280AA7
:105188005EE0A1696EE0012802D10226667472E031
:10519800431C01D10126F9E7A368A06103B9A06007
:1051A80094F91030002B0CDA0398E2694078012357
:1051B8005146FEF783FF0028ECD1237C03F07F03E0
:1051C8002374039BA16900931846FFF723F800286E
:1051D800DBD0019B7D0A03EB000850D0009B019AAD
:1051E8005B8900982A449A4288BF019A407888BF10
:1051F8009D1A2B4642464946FEF760FF0028C9D152
:10520800E169A1EB0801A9420AD24FF4007209EB47
:1052180041215046FFF73CF8237C03F07F032374B9
:105228006D026369E2682B4463619A422CBFE260B5
:10523800E360DBF800302B44A944CBF800307F1B37
:10524800AFB16369C3F3080262BB039A5289013A9A
:1052580012EA53220192A3D1002B92D1A068002810
:1052680091D101462046FFF703FB00288BD1237C10
:1052780043F040032374304605B0BDE8F08FE3697E
:1052880043450DD0E26863699A4209D90098012321
:10529800424651464078FEF7D3FE00287FF47AAFA5
:1052A800C4F81C806069C0F30800C0F50075BD42F1
:1052B80028BF3D462A4649465044FEF7E9FF237C6D
:1052C80063F07F032374ACE70726D4E773B501A91D
:1052D8000446FEF7C2FF0546002838D1237C5A064B
:1052E80035D51B060CD50198E2694078012304F1F5
:1052F8002801FEF7E3FE68BB237C03F07F032374D9
:10530800216A0198FFF73BF8054600BB666AF37A05
:1053180043F02003F372A26820683146FEF7CFFFFE
:10532800E16806F11C00FEF767FF21233376019838
:10533800B575482373760123F575B574F574C37094
:10534800FFF725FB237C23F04003054623742846FA
:1053580002B070BD0125FAE713B50446FFF7B6FFA2
:1053680028B901A92046FEF778FF00B9206002B0ED
:1053780010BD1FB50446019148B3002203A901A836
:10538800FFF758F870B9039B236001992046FFF78F
:10539800F1FBF0B994F92B30002B0CDBA379DB0679
:1053A80003D40520002323600FE0039BE1691878EC
:1053B800FEF777FFA060039BDB88A3802046FFF7FA
:1053C80031FB0428EDD00028ECD104B010BD092031
:1053D800FBE70428E5D0E5E737B50D4601A9044603
:1053E800FEF73BFF18B920461DB9FFF71BFB03B0BA
:1053F80030BDFFF797FC10F0FB03F8D16B72A3697F
:105408001BB129462046FEF766FF00212046FFF71C
:105418003CFB042808BF0020E9E700000C4B1B7880
:10542800062B10D10B4B1B681A070CD10A4B1868B6
:1054380000F0F003302B08D000F0E000A0F14003AA
:10544800584258417047002070470120704700BFFC
:10545800E00F00F0E40F00F0E80F00F0094B1B78B4
:10546800062B0CD1084B1B681A0708D1074B186884
:1054780000F0F000A0F13003584258417047002076
:10548800704700BFE00F00F0E40F00F0E80F00F0F5
:1054980008B5FFF7C3FF28B17D4B7E4A1B68C3F3ED
:1054A80004231360FFF7DAFF10B17B4B7B4A1A60C5
:1054B800FFF7B4FF28B17A4B7A4A1B68C3F342332B
:1054C8001360FFF7CBFF20B1774AD36823F08073CE
:1054D800D360FFF7A3FF40B14FF080430022C3F829
:1054E8000C21C3F81021C3F83825FFF7B7FF10B116
:1054F8006E4B03221A60FFF7B1FF40B16C4B0522D7
:105508001A6001229A6700229A603F225A60694B0A
:105518001B78062B50D1684B1B6819074CD1674B79
:105528001B6803F0F003502B46D14FF08052644BB8
:10553800D2F80414C3F82015D2F80814C3F82415B7
:10554800D2F80C14C3F82815D2F81014C3F82C1587
:10555800D2F81414C3F83015D2F81814C3F8341557
:10556800D2F81C14C3F84015D2F82014C3F8441517
:10557800D2F82414C3F84815D2F82814C3F84C15E7
:10558800D2F82C14C3F85015D2F83014C3F85415B7
:10559800D2F83414C3F86015D2F83814C3F8641577
:1055A800D2F83C14C3F86815D2F84014C3F86C1547
:1055B800D2F84424C3F87025FFF730FF28B1414BD7
:1055C800414A1B6803F04F031360FFF727FF48B1F8
:1055D8004FF08043D3F80024D20744BF6FF0010294
:1055E800C3F80024394B1B68062B08D1384B1B68BD
:1055F800062B01BF374A136843F480631360364AA9
:10560800D2F8883043F47003C2F88830BFF34F8F64
:10561800BFF36F8F4FF01023D3F80022002A03DB6B
:10562800D3F80432002B2FDA2C4B0122C3F80425BF
:10563800D3F80024002AFBD04FF010221521C2F81D
:105648000012D3F80024002AFBD04FF010231522B3
:10565800C3F80422214B1A46D3F800140029FBD0C2
:105668000021C3F80415D2F80034002BFBD0BFF397
:105678004F8F19491A4BCA6802F4E0621343CB6092
:10568800BFF34F8F00BFFDE7164B174A1A6008BDDE
:10569800240300104035014074C007400DF0ADBA36
:1056A800440200103C050040F0ED00E0A005004079
:1056B80010560040E00F00F0E40F00F0E80F00F093
:1056C80000C0004058020010E40E004030010010F5
:1056D800340100103C17004000ED00E000E00140FC
:1056E8000400FA05140000200090D00353EA020CCD
:1056F80061D02DE9F04BB3FA83F51E0007BFB2FA6B
:1057080082F502FA05F403FA05F41646C5F12005F8
:105718001EBF22FA05F73C43203556EA044C4FEAEF
:10572800144418BF0134A3464FF00009C8469042FC
:1057380071EB030C39D3094207BFB0FA80F700FABE
:1057480007F6B1FA81F701FA07F6C7F120071EBF7D
:1057580020FA07FC46EA0C062037B6FBFBFC7F1B49
:10576800103F07F01F04C4F120060CFA04F42CFAC9
:1057780006F644BF34460026202FA4BF2646002440
:1057880054EA060C08BF012418EB040849EB060983
:10579800A4FB027CC01B06FB02CC04FB03CC71EB10
:1057A8000C01904271EB030CC5D20B4602464946E8
:1057B8004046BDE8F08BB2FBF3F200007F2805D825
:1057C800034B185C034B5B5C184070470020704724
:1057D8001869000098690000A0F16103192B98BFAF
:1057E80020387047A0F14103192B98BF203070472B
:1057F8007F2805D8034B185C034B5B5C1840704747
:10580800002070471869000098690000A0F1610342
:10581800192B98BF20387047A0F14103192B98BF66
:10582800203070477F299ABF017001206FF02E0049
:1058380070475AB10A787F2A0AD800B1026000215D
:1058480019605960501A18BF01207047002070472E
:105858006FF02E00704738B504460846A26842B17A
:10586800236861685D1C8D4208BF00208B4208D206
:10587800D054E3682BB121686268914201D2214675
:10588800984723680133236038BD70B54C1E09D48E
:105898001646C5B229463046FFF7DDFF013CB4F194
:1058A800FF3FF7D170BD10F0100F09D108B500F413
:1058B8000070002814BF30202020FFF7E6FF08BD45
:1058C8007047000008B5034B5B689B681B689847E6
:1058D80008BD00BF1800002008B50921FFF7F2FF36
:1058E80008BD0EB400B586B007AA52F8041B05928D
:1058F8000390002304936FF00043029301A800F083
:10590800C3F806B05DF804EB03B0704703784BB1F9
:1059180051B10144034613F8012F0AB18B42FAD161
:10592800181A70470346FBE70346F9E7844640EA3E
:10593800010313F0030F18D18446202A0BD32DE955
:10594800F007B1E8F807A0E8F807A2F12002202A3A
:10595800F7D2BDE8F007042A07D351F8043B40F812
:10596800043BA2F10402042AF7D2002A05D011F858
:10597800013B00F8013B013AF9D160467047844683
:10598800002A2DD010F0030F04D000F8011B013AB3
:1059980026D0F7E7C9B241EA012141EA0141202AAC
:1059A80012D3A2F120022DE9F0030B460C460D4656
:1059B8000E460F4688468946A0E8FA03203AFBD2ED
:1059C800BDE8F00320320BD0042A05D340F8041BAD
:1059D800043A05D0042AF9D200F8011B013AFBD198
:1059E80060467047024610F0030F16D111F0030FFE
:1059F80013D12DE9F0004FF001374FF0803351F803
:105A0800044BA4EB070525EA04051D4002D142F822
:105A1800044BF4E7A1F10401F0BC11F8013B02F8D2
:105A2800013B002BF9D1704700F1010110F0030F81
:105A380011D010F8012B002A23D010F0030F0AD040
:105A480010F8012B002A1CD010F0030F03D010F817
:105A5800012B002A15D02DE970004FF001324FF0CC
:105A6800803350F8044BA4EB020525EA04051D40D9
:105A780000D1F6E7A0F1040070BC10F8012B002A51
:105A8800FBD1A0EB010070472DE9F04F89B08046AB
:105A98000F46039200230360DFF81CA680E300256D
:105AA80002E045F040052646344614F8010BA0F103
:105AB80020033E2B00F2948001A252F823F000BF8D
:105AC800AB5A0000E95B0000E95B0000C55B000021
